:1000000009C016C0F0C000C113C012C011C010C09A
:100010000FC00EC011241FBECFE9CDBF10E0A0E677
:10002000B0E001C01D92A436B107E1F709D014C1B8
:10003000E7CF80E18093630088BB8CE187BB0895A4
:100040008F929F92AF92BF92CF92DF92EF92FF92E8
:100050000F931F93CF93DF93F89480E886BD83E0DE
:1000600086BDA89A8BB780628BBF89B7826089BF33
:100070001FBC85E083BF85B7806485BF8CE187BBEB
:10008000789480916300806180936300C49AC398E0
:1000900058E2C52ED12C48E1842E34E6E32EF12C13
:1000A0000CE211E022E0B22E98E0992EC8E5D2E0F1
:1000B00080E1A82E8091630085FF86C0A89880917A
:1000C00063008F7D809363008BE49DE10197F1F7DE
:1000D00000C0000086B38091630084FF1AC0909234
:1000E0006300C29AC39AC49AD0936200C09361001D
:1000F0000CC08091610090916200009731F4809172
:1001000063008160809363002BC0B199F2CFC498E3
:100110005AC08091630083FF56C0D0926200C092A3
:100120006100C49AC39815C080916000882329F4A7
:1001300088B3882588BBB09260008091610090915F
:100140006200009731F4F89474DFB09BFECF78948E
:100150003AC0B09BE9CF8091630080FF03C0C49A8E
:10016000C39831C0C49AC398B99AC19A98EC9A9529
:10017000F1F7C19887E99AE30197F1F700C0000011
:10018000B998C19AF0926200E09261000EC080912D
:10019000610090916200009741F4C49AC3988091E5
:1001A00063008160809363000EC0B199F0CFC39A61
:1001B0001093620000936100809161009091620051
:1001C0000097D1F736DFA89A8091630080FF72CF45
:1001D00080916000882309F06DCF88B38A2588BBA1
:1001E000B092600067CF1F920F920FB60F9211244A
:1001F0008F93809163008062809363008F910F9052
:100200000FBE0F901F9018951F920F920FB60F926E
:1002100011248F939F9380916000882329F080910F
:100220006000815080936000809161009091620035
:10023000009749F08091610090916200019790933E
:1002400062008093610085E182BF9F918F910F9042
:0C0250000FBE0F901F901895F894FFCF80
:00000001FF
