:1000000009C016C0D6C0E6C013C012C011C010C0CF
:100010000FC00EC011241FBECFE9CDBF10E0A0E677
:10002000B0E001C01D92A336B107E1F702D0F2C0E3
:10003000E7CFF89480E886BD83E086BDA89A8BB7A9
:1000400080628BBF89B7826089BF1FBC85E083BF98
:1000500085B7806485BF8CE187BB7894809162000E
:10006000806180936200C49AC39838E258E128EC1A
:1000700092E040E18091620085FF8CC0A898809159
:1000800062008F7D80936200EBE4FDE13197F1F730
:1000900000C0000086B38091620084FF1EC0809182
:1000A0006200886080936200809162008F7E8093FE
:1000B0006200C29AC39AC49A209361000AC08091D8
:1000C0006100882331F48091620081608093620036
:1000D00031C0B199F4CFC4985CC08091620083FFB5
:1000E00058C030936100C49AC3981DC080916000CD
:1000F000882329F488B3852788BB9093600080917A
:100100006100882381F480916200806180936200A5
:1001100080916200867F80936200C298C398C49ADF
:10012000B09BFECF36C0B09BE1CF8091620080FFD4
:1001300003C0C49AC3982DC0B998C198F8ECFA9539
:10014000F1F7C19AB99A309361000CC080916100B7
:10015000882341F4C49AC39880916200816080939F
:10016000620017C0B099F2CFC39AC49A209361007D
:10017000809161008823E1F7809162008061809323
:10018000620080916200877F80936200C298C3986A
:10019000C49AA89A8091620080FF6CCF8091600021
:1001A000882309F067CF88B3842788BB90936000C9
:1001B00061CF1F920F920FB60F9211248F938091EF
:1001C00062008062809362008F910F900FBE0F904B
:1001D0001F9018951F920F920FB60F9211248F93B4
:1001E00080916000882329F0809160008150809385
:1001F000600080916100882329F080916100815026
:100200008093610085E182BF8F910F900FBE0F90A8
:080210001F901895F894FFCF30
:00000001FF
